{
  "_format": "hh-sol-artifact-1",
  "contractName": "PlayerNFT",
  "sourceName": "contracts/PlayerNFT.sol",
  "abi": [
    {
      "inputs": [],
      "stateMutability": "nonpayable",
      "type": "constructor"
    },
    {
      "inputs": [
        {
          "internalType": "address",
          "name": "sender",
          "type": "address"
        },
        {
          "internalType": "uint256",
          "name": "tokenId",
          "type": "uint256"
        },
        {
          "internalType": "address",
          "name": "owner",
          "type": "address"
        }
      ],
      "name": "ERC721IncorrectOwner",
      "type": "error"
    },
    {
      "inputs": [
        {
          "internalType": "address",
          "name": "operator",
          "type": "address"
        },
        {
          "internalType": "uint256",
          "name": "tokenId",
          "type": "uint256"
        }
      ],
      "name": "ERC721InsufficientApproval",
      "type": "error"
    },
    {
      "inputs": [
        {
          "internalType": "address",
          "name": "approver",
          "type": "address"
        }
      ],
      "name": "ERC721InvalidApprover",
      "type": "error"
    },
    {
      "inputs": [
        {
          "internalType": "address",
          "name": "operator",
          "type": "address"
        }
      ],
      "name": "ERC721InvalidOperator",
      "type": "error"
    },
    {
      "inputs": [
        {
          "internalType": "address",
          "name": "owner",
          "type": "address"
        }
      ],
      "name": "ERC721InvalidOwner",
      "type": "error"
    },
    {
      "inputs": [
        {
          "internalType": "address",
          "name": "receiver",
          "type": "address"
        }
      ],
      "name": "ERC721InvalidReceiver",
      "type": "error"
    },
    {
      "inputs": [
        {
          "internalType": "address",
          "name": "sender",
          "type": "address"
        }
      ],
      "name": "ERC721InvalidSender",
      "type": "error"
    },
    {
      "inputs": [
        {
          "internalType": "uint256",
          "name": "tokenId",
          "type": "uint256"
        }
      ],
      "name": "ERC721NonexistentToken",
      "type": "error"
    },
    {
      "inputs": [
        {
          "internalType": "address",
          "name": "owner",
          "type": "address"
        }
      ],
      "name": "OwnableInvalidOwner",
      "type": "error"
    },
    {
      "inputs": [
        {
          "internalType": "address",
          "name": "account",
          "type": "address"
        }
      ],
      "name": "OwnableUnauthorizedAccount",
      "type": "error"
    },
    {
      "anonymous": false,
      "inputs": [
        {
          "indexed": true,
          "internalType": "address",
          "name": "owner",
          "type": "address"
        },
        {
          "indexed": true,
          "internalType": "address",
          "name": "approved",
          "type": "address"
        },
        {
          "indexed": true,
          "internalType": "uint256",
          "name": "tokenId",
          "type": "uint256"
        }
      ],
      "name": "Approval",
      "type": "event"
    },
    {
      "anonymous": false,
      "inputs": [
        {
          "indexed": true,
          "internalType": "address",
          "name": "owner",
          "type": "address"
        },
        {
          "indexed": true,
          "internalType": "address",
          "name": "operator",
          "type": "address"
        },
        {
          "indexed": false,
          "internalType": "bool",
          "name": "approved",
          "type": "bool"
        }
      ],
      "name": "ApprovalForAll",
      "type": "event"
    },
    {
      "anonymous": false,
      "inputs": [
        {
          "indexed": false,
          "internalType": "uint256",
          "name": "_fromTokenId",
          "type": "uint256"
        },
        {
          "indexed": false,
          "internalType": "uint256",
          "name": "_toTokenId",
          "type": "uint256"
        }
      ],
      "name": "BatchMetadataUpdate",
      "type": "event"
    },
    {
      "anonymous": false,
      "inputs": [
        {
          "indexed": false,
          "internalType": "uint256",
          "name": "_tokenId",
          "type": "uint256"
        }
      ],
      "name": "MetadataUpdate",
      "type": "event"
    },
    {
      "anonymous": false,
      "inputs": [
        {
          "indexed": true,
          "internalType": "address",
          "name": "previousOwner",
          "type": "address"
        },
        {
          "indexed": true,
          "internalType": "address",
          "name": "newOwner",
          "type": "address"
        }
      ],
      "name": "OwnershipTransferred",
      "type": "event"
    },
    {
      "anonymous": false,
      "inputs": [
        {
          "indexed": true,
          "internalType": "address",
          "name": "from",
          "type": "address"
        },
        {
          "indexed": true,
          "internalType": "address",
          "name": "to",
          "type": "address"
        },
        {
          "indexed": true,
          "internalType": "uint256",
          "name": "tokenId",
          "type": "uint256"
        }
      ],
      "name": "Transfer",
      "type": "event"
    },
    {
      "inputs": [
        {
          "internalType": "address",
          "name": "to",
          "type": "address"
        },
        {
          "internalType": "uint256",
          "name": "tokenId",
          "type": "uint256"
        }
      ],
      "name": "approve",
      "outputs": [],
      "stateMutability": "nonpayable",
      "type": "function"
    },
    {
      "inputs": [
        {
          "internalType": "address",
          "name": "owner",
          "type": "address"
        }
      ],
      "name": "balanceOf",
      "outputs": [
        {
          "internalType": "uint256",
          "name": "",
          "type": "uint256"
        }
      ],
      "stateMutability": "view",
      "type": "function"
    },
    {
      "inputs": [
        {
          "internalType": "uint256",
          "name": "tokenId",
          "type": "uint256"
        }
      ],
      "name": "getApproved",
      "outputs": [
        {
          "internalType": "address",
          "name": "",
          "type": "address"
        }
      ],
      "stateMutability": "view",
      "type": "function"
    },
    {
      "inputs": [
        {
          "internalType": "address",
          "name": "owner",
          "type": "address"
        },
        {
          "internalType": "address",
          "name": "operator",
          "type": "address"
        }
      ],
      "name": "isApprovedForAll",
      "outputs": [
        {
          "internalType": "bool",
          "name": "",
          "type": "bool"
        }
      ],
      "stateMutability": "view",
      "type": "function"
    },
    {
      "inputs": [
        {
          "internalType": "address",
          "name": "to",
          "type": "address"
        },
        {
          "internalType": "string",
          "name": "tokenURI",
          "type": "string"
        }
      ],
      "name": "mintPlayer",
      "outputs": [],
      "stateMutability": "nonpayable",
      "type": "function"
    },
    {
      "inputs": [],
      "name": "name",
      "outputs": [
        {
          "internalType": "string",
          "name": "",
          "type": "string"
        }
      ],
      "stateMutability": "view",
      "type": "function"
    },
    {
      "inputs": [],
      "name": "nextTokenId",
      "outputs": [
        {
          "internalType": "uint256",
          "name": "",
          "type": "uint256"
        }
      ],
      "stateMutability": "view",
      "type": "function"
    },
    {
      "inputs": [],
      "name": "owner",
      "outputs": [
        {
          "internalType": "address",
          "name": "",
          "type": "address"
        }
      ],
      "stateMutability": "view",
      "type": "function"
    },
    {
      "inputs": [
        {
          "internalType": "uint256",
          "name": "tokenId",
          "type": "uint256"
        }
      ],
      "name": "ownerOf",
      "outputs": [
        {
          "internalType": "address",
          "name": "",
          "type": "address"
        }
      ],
      "stateMutability": "view",
      "type": "function"
    },
    {
      "inputs": [],
      "name": "renounceOwnership",
      "outputs": [],
      "stateMutability": "nonpayable",
      "type": "function"
    },
    {
      "inputs": [
        {
          "internalType": "address",
          "name": "from",
          "type": "address"
        },
        {
          "internalType": "address",
          "name": "to",
          "type": "address"
        },
        {
          "internalType": "uint256",
          "name": "tokenId",
          "type": "uint256"
        }
      ],
      "name": "safeTransferFrom",
      "outputs": [],
      "stateMutability": "nonpayable",
      "type": "function"
    },
    {
      "inputs": [
        {
          "internalType": "address",
          "name": "from",
          "type": "address"
        },
        {
          "internalType": "address",
          "name": "to",
          "type": "address"
        },
        {
          "internalType": "uint256",
          "name": "tokenId",
          "type": "uint256"
        },
        {
          "internalType": "bytes",
          "name": "data",
          "type": "bytes"
        }
      ],
      "name": "safeTransferFrom",
      "outputs": [],
      "stateMutability": "nonpayable",
      "type": "function"
    },
    {
      "inputs": [
        {
          "internalType": "address",
          "name": "operator",
          "type": "address"
        },
        {
          "internalType": "bool",
          "name": "approved",
          "type": "bool"
        }
      ],
      "name": "setApprovalForAll",
      "outputs": [],
      "stateMutability": "nonpayable",
      "type": "function"
    },
    {
      "inputs": [
        {
          "internalType": "bytes4",
          "name": "interfaceId",
          "type": "bytes4"
        }
      ],
      "name": "supportsInterface",
      "outputs": [
        {
          "internalType": "bool",
          "name": "",
          "type": "bool"
        }
      ],
      "stateMutability": "view",
      "type": "function"
    },
    {
      "inputs": [],
      "name": "symbol",
      "outputs": [
        {
          "internalType": "string",
          "name": "",
          "type": "string"
        }
      ],
      "stateMutability": "view",
      "type": "function"
    },
    {
      "inputs": [
        {
          "internalType": "uint256",
          "name": "tokenId",
          "type": "uint256"
        }
      ],
      "name": "tokenURI",
      "outputs": [
        {
          "internalType": "string",
          "name": "",
          "type": "string"
        }
      ],
      "stateMutability": "view",
      "type": "function"
    },
    {
      "inputs": [
        {
          "internalType": "address",
          "name": "from",
          "type": "address"
        },
        {
          "internalType": "address",
          "name": "to",
          "type": "address"
        },
        {
          "internalType": "uint256",
          "name": "tokenId",
          "type": "uint256"
        }
      ],
      "name": "transferFrom",
      "outputs": [],
      "stateMutability": "nonpayable",
      "type": "function"
    },
    {
      "inputs": [
        {
          "internalType": "address",
          "name": "newOwner",
          "type": "address"
        }
      ],
      "name": "transferOwnership",
      "outputs": [],
      "stateMutability": "nonpayable",
      "type": "function"
    }
  ],
  "bytecode": "0x60806040523480156200001157600080fd5b50336040518060400160405280600f81526020017f46616e746173795820506c6179657200000000000000000000000000000000008152506040518060400160405280600381526020017f4658500000000000000000000000000000000000000000000000000000000000815250816000908162000090919062000472565b508060019081620000a2919062000472565b505050600073ffffffffffffffffffffffffffffffffffffffff168173ffffffffffffffffffffffffffffffffffffffff16036200011a5760006040517f1e4fbdf70000000000000000000000000000000000000000000000000000000081526004016200011191906200059e565b60405180910390fd5b6200012b816200013260201b60201c565b50620005bb565b6000600760009054906101000a900473ffffffffffffffffffffffffffffffffffffffff16905081600760006101000a81548173ffffffffffffffffffffffffffffffffffffffff021916908373ffffffffffffffffffffffffffffffffffffffff1602179055508173ffffffffffffffffffffffffffffffffffffffff168173ffffffffffffffffffffffffffffffffffffffff167f8be0079c531659141344cd1fd0a4f28419497f9722a3daafe3b4186f6b6457e060405160405180910390a35050565b600081519050919050565b7f4e487b7100000000000000000000000000000000000000000000000000000000600052604160045260246000fd5b7f4e487b7100000000000000000000000000000000000000000000000000000000600052602260045260246000fd5b600060028204905060018216806200027a57607f821691505b60208210810362000290576200028f62000232565b5b50919050565b60008190508160005260206000209050919050565b60006020601f8301049050919050565b600082821b905092915050565b600060088302620002fa7fffffffffffffffffffffffffffffffffffffffffffffffffffffffffffffffff82620002bb565b620003068683620002bb565b95508019841693508086168417925050509392505050565b6000819050919050565b6000819050919050565b6000620003536200034d62000347846200031e565b62000328565b6200031e565b9050919050565b6000819050919050565b6200036f8362000332565b620003876200037e826200035a565b848454620002c8565b825550505050565b600090565b6200039e6200038f565b620003ab81848462000364565b505050565b5b81811015620003d357620003c760008262000394565b600181019050620003b1565b5050565b601f8211156200042257620003ec8162000296565b620003f784620002ab565b8101602085101562000407578190505b6200041f6200041685620002ab565b830182620003b0565b50505b505050565b600082821c905092915050565b6000620004476000198460080262000427565b1980831691505092915050565b600062000462838362000434565b9150826002028217905092915050565b6200047d82620001f8565b67ffffffffffffffff81111562000499576200049862000203565b5b620004a5825462000261565b620004b2828285620003d7565b600060209050601f831160018114620004ea5760008415620004d5578287015190505b620004e1858262000454565b86555062000551565b601f198416620004fa8662000296565b60005b828110156200052457848901518255600182019150602085019450602081019050620004fd565b8683101562000544578489015162000540601f89168262000434565b8355505b6001600288020188555050505b505050505050565b600073ffffffffffffffffffffffffffffffffffffffff82169050919050565b6000620005868262000559565b9050919050565b620005988162000579565b82525050565b6000602082019050620005b560008301846200058d565b92915050565b61269380620005cb6000396000f3fe608060405234801561001057600080fd5b50600436106101165760003560e01c8063715018a6116100a2578063a22cb46511610071578063a22cb465146102cd578063b88d4fde146102e9578063c87b56dd14610305578063e985e9c514610335578063f2fde38b1461036557610116565b8063715018a61461026957806375794a3c146102735780638da5cb5b1461029157806395d89b41146102af57610116565b8063185c3424116100e9578063185c3424146101b557806323b872dd146101d157806342842e0e146101ed5780636352211e1461020957806370a082311461023957610116565b806301ffc9a71461011b57806306fdde031461014b578063081812fc14610169578063095ea7b314610199575b600080fd5b61013560048036038101906101309190611aeb565b610381565b6040516101429190611b33565b60405180910390f35b6101536103e2565b6040516101609190611bde565b60405180910390f35b610183600480360381019061017e9190611c36565b610474565b6040516101909190611ca4565b60405180910390f35b6101b360048036038101906101ae9190611ceb565b610490565b005b6101cf60048036038101906101ca9190611e60565b6104a6565b005b6101eb60048036038101906101e69190611ebc565b6104e2565b005b61020760048036038101906102029190611ebc565b6105e4565b005b610223600480360381019061021e9190611c36565b610604565b6040516102309190611ca4565b60405180910390f35b610253600480360381019061024e9190611f0f565b610616565b6040516102609190611f4b565b60405180910390f35b6102716106d0565b005b61027b6106e4565b6040516102889190611f4b565b60405180910390f35b6102996106ea565b6040516102a69190611ca4565b60405180910390f35b6102b7610714565b6040516102c49190611bde565b60405180910390f35b6102e760048036038101906102e29190611f92565b6107a6565b005b61030360048036038101906102fe9190612073565b6107bc565b005b61031f600480360381019061031a9190611c36565b6107e1565b60405161032c9190611bde565b60405180910390f35b61034f600480360381019061034a91906120f6565b6108f4565b60405161035c9190611b33565b60405180910390f35b61037f600480360381019061037a9190611f0f565b610988565b005b6000634906490660e01b7bffffffffffffffffffffffffffffffffffffffffffffffffffffffff1916827bffffffffffffffffffffffffffffffffffffffffffffffffffffffff191614806103db57506103da82610a0e565b5b9050919050565b6060600080546103f190612165565b80601f016020809104026020016040519081016040528092919081815260200182805461041d90612165565b801561046a5780601f1061043f5761010080835404028352916020019161046a565b820191906000526020600020905b81548152906001019060200180831161044d57829003601f168201915b5050505050905090565b600061047f82610af0565b5061048982610b78565b9050919050565b6104a2828261049d610bb5565b610bbd565b5050565b6104ae610bcf565b6104ba82600854610c56565b6104c660085482610c74565b600860008154809291906104d9906121c5565b91905055505050565b600073ffffffffffffffffffffffffffffffffffffffff168273ffffffffffffffffffffffffffffffffffffffff16036105545760006040517f64a0ae9200000000000000000000000000000000000000000000000000000000815260040161054b9190611ca4565b60405180910390fd5b60006105688383610563610bb5565b610cd0565b90508373ffffffffffffffffffffffffffffffffffffffff168173ffffffffffffffffffffffffffffffffffffffff16146105de578382826040517f64283d7b0000000000000000000000000000000000000000000000000000000081526004016105d59392919061220d565b60405180910390fd5b50505050565b6105ff838383604051806020016040528060008152506107bc565b505050565b600061060f82610af0565b9050919050565b60008073ffffffffffffffffffffffffffffffffffffffff168273ffffffffffffffffffffffffffffffffffffffff16036106895760006040517f89c62b640000000000000000000000000000000000000000000000000000000081526004016106809190611ca4565b60405180910390fd5b600360008373ffffffffffffffffffffffffffffffffffffffff1673ffffffffffffffffffffffffffffffffffffffff168152602001908152602001600020549050919050565b6106d8610bcf565b6106e26000610eea565b565b60085481565b6000600760009054906101000a900473ffffffffffffffffffffffffffffffffffffffff16905090565b60606001805461072390612165565b80601f016020809104026020016040519081016040528092919081815260200182805461074f90612165565b801561079c5780601f106107715761010080835404028352916020019161079c565b820191906000526020600020905b81548152906001019060200180831161077f57829003601f168201915b5050505050905090565b6107b86107b1610bb5565b8383610fb0565b5050565b6107c78484846104e2565b6107db6107d2610bb5565b8585858561111f565b50505050565b60606107ec82610af0565b50600060066000848152602001908152602001600020805461080d90612165565b80601f016020809104026020016040519081016040528092919081815260200182805461083990612165565b80156108865780601f1061085b57610100808354040283529160200191610886565b820191906000526020600020905b81548152906001019060200180831161086957829003601f168201915b5050505050905060006108976112d0565b905060008151036108ac5781925050506108ef565b6000825111156108e15780826040516020016108c9929190612280565b604051602081830303815290604052925050506108ef565b6108ea846112e7565b925050505b919050565b6000600560008473ffffffffffffffffffffffffffffffffffffffff1673ffffffffffffffffffffffffffffffffffffffff16815260200190815260200160002060008373ffffffffffffffffffffffffffffffffffffffff1673ffffffffffffffffffffffffffffffffffffffff16815260200190815260200160002060009054906101000a900460ff16905092915050565b610990610bcf565b600073ffffffffffffffffffffffffffffffffffffffff168173ffffffffffffffffffffffffffffffffffffffff1603610a025760006040517f1e4fbdf70000000000000000000000000000000000000000000000000000000081526004016109f99190611ca4565b60405180910390fd5b610a0b81610eea565b50565b60007f80ac58cd000000000000000000000000000000000000000000000000000000007bffffffffffffffffffffffffffffffffffffffffffffffffffffffff1916827bffffffffffffffffffffffffffffffffffffffffffffffffffffffff19161480610ad957507f5b5e139f000000000000000000000000000000000000000000000000000000007bffffffffffffffffffffffffffffffffffffffffffffffffffffffff1916827bffffffffffffffffffffffffffffffffffffffffffffffffffffffff1916145b80610ae95750610ae882611350565b5b9050919050565b600080610afc836113ba565b9050600073ffffffffffffffffffffffffffffffffffffffff168173ffffffffffffffffffffffffffffffffffffffff1603610b6f57826040517f7e273289000000000000000000000000000000000000000000000000000000008152600401610b669190611f4b565b60405180910390fd5b80915050919050565b60006004600083815260200190815260200160002060009054906101000a900473ffffffffffffffffffffffffffffffffffffffff169050919050565b600033905090565b610bca83838360016113f7565b505050565b610bd7610bb5565b73ffffffffffffffffffffffffffffffffffffffff16610bf56106ea565b73ffffffffffffffffffffffffffffffffffffffff1614610c5457610c18610bb5565b6040517f118cdaa7000000000000000000000000000000000000000000000000000000008152600401610c4b9190611ca4565b60405180910390fd5b565b610c708282604051806020016040528060008152506115bc565b5050565b80600660008481526020019081526020016000209081610c949190612450565b507ff8e1a15aba9398e019f0b49df1a4fde98ee17ae345cb5f6b5e2c27f5033e8ce782604051610cc49190611f4b565b60405180910390a15050565b600080610cdc846113ba565b9050600073ffffffffffffffffffffffffffffffffffffffff168373ffffffffffffffffffffffffffffffffffffffff1614610d1e57610d1d8184866115e0565b5b600073ffffffffffffffffffffffffffffffffffffffff168173ffffffffffffffffffffffffffffffffffffffff1614610daf57610d606000856000806113f7565b6001600360008373ffffffffffffffffffffffffffffffffffffffff1673ffffffffffffffffffffffffffffffffffffffff168152602001908152602001600020600082825403925050819055505b600073ffffffffffffffffffffffffffffffffffffffff168573ffffffffffffffffffffffffffffffffffffffff1614610e32576001600360008773ffffffffffffffffffffffffffffffffffffffff1673ffffffffffffffffffffffffffffffffffffffff168152602001908152602001600020600082825401925050819055505b846002600086815260200190815260200160002060006101000a81548173ffffffffffffffffffffffffffffffffffffffff021916908373ffffffffffffffffffffffffffffffffffffffff160217905550838573ffffffffffffffffffffffffffffffffffffffff168273ffffffffffffffffffffffffffffffffffffffff167fddf252ad1be2c89b69c2b068fc378daa952ba7f163c4a11628f55a4df523b3ef60405160405180910390a4809150509392505050565b6000600760009054906101000a900473ffffffffffffffffffffffffffffffffffffffff16905081600760006101000a81548173ffffffffffffffffffffffffffffffffffffffff021916908373ffffffffffffffffffffffffffffffffffffffff1602179055508173ffffffffffffffffffffffffffffffffffffffff168173ffffffffffffffffffffffffffffffffffffffff167f8be0079c531659141344cd1fd0a4f28419497f9722a3daafe3b4186f6b6457e060405160405180910390a35050565b600073ffffffffffffffffffffffffffffffffffffffff168273ffffffffffffffffffffffffffffffffffffffff160361102157816040517f5b08ba180000000000000000000000000000000000000000000000000000000081526004016110189190611ca4565b60405180910390fd5b80600560008573ffffffffffffffffffffffffffffffffffffffff1673ffffffffffffffffffffffffffffffffffffffff16815260200190815260200160002060008473ffffffffffffffffffffffffffffffffffffffff1673ffffffffffffffffffffffffffffffffffffffff16815260200190815260200160002060006101000a81548160ff0219169083151502179055508173ffffffffffffffffffffffffffffffffffffffff168373ffffffffffffffffffffffffffffffffffffffff167f17307eab39ab6107e8899845ad3d59bd9653f200f220920489ca2b5937696c31836040516111129190611b33565b60405180910390a3505050565b60008373ffffffffffffffffffffffffffffffffffffffff163b11156112c9578273ffffffffffffffffffffffffffffffffffffffff1663150b7a02868685856040518563ffffffff1660e01b815260040161117e9493929190612577565b6020604051808303816000875af19250505080156111ba57506040513d601f19601f820116820180604052508101906111b791906125d8565b60015b61123e573d80600081146111ea576040519150601f19603f3d011682016040523d82523d6000602084013e6111ef565b606091505b50600081510361123657836040517f64a0ae9200000000000000000000000000000000000000000000000000000000815260040161122d9190611ca4565b60405180910390fd5b805181602001fd5b63150b7a0260e01b7bffffffffffffffffffffffffffffffffffffffffffffffffffffffff1916817bffffffffffffffffffffffffffffffffffffffffffffffffffffffff1916146112c757836040517f64a0ae920000000000000000000000000000000000000000000000000000000081526004016112be9190611ca4565b60405180910390fd5b505b5050505050565b606060405180602001604052806000815250905090565b60606112f282610af0565b5060006112fd6112d0565b9050600081511161131d5760405180602001604052806000815250611348565b80611327846116a4565b604051602001611338929190612280565b6040516020818303038152906040525b915050919050565b60007f01ffc9a7000000000000000000000000000000000000000000000000000000007bffffffffffffffffffffffffffffffffffffffffffffffffffffffff1916827bffffffffffffffffffffffffffffffffffffffffffffffffffffffff1916149050919050565b60006002600083815260200190815260200160002060009054906101000a900473ffffffffffffffffffffffffffffffffffffffff169050919050565b80806114305750600073ffffffffffffffffffffffffffffffffffffffff168273ffffffffffffffffffffffffffffffffffffffff1614155b1561156457600061144084610af0565b9050600073ffffffffffffffffffffffffffffffffffffffff168373ffffffffffffffffffffffffffffffffffffffff16141580156114ab57508273ffffffffffffffffffffffffffffffffffffffff168173ffffffffffffffffffffffffffffffffffffffff1614155b80156114be57506114bc81846108f4565b155b1561150057826040517fa9fbf51f0000000000000000000000000000000000000000000000000000000081526004016114f79190611ca4565b60405180910390fd5b811561156257838573ffffffffffffffffffffffffffffffffffffffff168273ffffffffffffffffffffffffffffffffffffffff167f8c5be1e5ebec7d5bd14f71427d1e84f3dd0314c0f7b2291e5b200ac8c7c3b92560405160405180910390a45b505b836004600085815260200190815260200160002060006101000a81548173ffffffffffffffffffffffffffffffffffffffff021916908373ffffffffffffffffffffffffffffffffffffffff16021790555050505050565b6115c68383611772565b6115db6115d1610bb5565b600085858561111f565b505050565b6115eb83838361186b565b61169f57600073ffffffffffffffffffffffffffffffffffffffff168373ffffffffffffffffffffffffffffffffffffffff160361166057806040517f7e2732890000000000000000000000000000000000000000000000000000000081526004016116579190611f4b565b60405180910390fd5b81816040517f177e802f000000000000000000000000000000000000000000000000000000008152600401611696929190612605565b60405180910390fd5b505050565b6060600060016116b38461192c565b01905060008167ffffffffffffffff8111156116d2576116d1611d35565b5b6040519080825280601f01601f1916602001820160405280156117045781602001600182028036833780820191505090505b509050600082602001820190505b600115611767578080600190039150507f3031323334353637383961626364656600000000000000000000000000000000600a86061a8153600a858161175b5761175a61262e565b5b04945060008503611712575b819350505050919050565b600073ffffffffffffffffffffffffffffffffffffffff168273ffffffffffffffffffffffffffffffffffffffff16036117e45760006040517f64a0ae920000000000000000000000000000000000000000000000000000000081526004016117db9190611ca4565b60405180910390fd5b60006117f283836000610cd0565b9050600073ffffffffffffffffffffffffffffffffffffffff168173ffffffffffffffffffffffffffffffffffffffff16146118665760006040517f73c6ac6e00000000000000000000000000000000000000000000000000000000815260040161185d9190611ca4565b60405180910390fd5b505050565b60008073ffffffffffffffffffffffffffffffffffffffff168373ffffffffffffffffffffffffffffffffffffffff161415801561192357508273ffffffffffffffffffffffffffffffffffffffff168473ffffffffffffffffffffffffffffffffffffffff1614806118e457506118e384846108f4565b5b8061192257508273ffffffffffffffffffffffffffffffffffffffff1661190a83610b78565b73ffffffffffffffffffffffffffffffffffffffff16145b5b90509392505050565b600080600090507a184f03e93ff9f4daa797ed6e38ed64bf6a1f010000000000000000831061198a577a184f03e93ff9f4daa797ed6e38ed64bf6a1f01000000000000000083816119805761197f61262e565b5b0492506040810190505b6d04ee2d6d415b85acef810000000083106119c7576d04ee2d6d415b85acef810000000083816119bd576119bc61262e565b5b0492506020810190505b662386f26fc1000083106119f657662386f26fc1000083816119ec576119eb61262e565b5b0492506010810190505b6305f5e1008310611a1f576305f5e1008381611a1557611a1461262e565b5b0492506008810190505b6127108310611a44576127108381611a3a57611a3961262e565b5b0492506004810190505b60648310611a675760648381611a5d57611a5c61262e565b5b0492506002810190505b600a8310611a76576001810190505b80915050919050565b6000604051905090565b600080fd5b600080fd5b60007fffffffff0000000000000000000000000000000000000000000000000000000082169050919050565b611ac881611a93565b8114611ad357600080fd5b50565b600081359050611ae581611abf565b92915050565b600060208284031215611b0157611b00611a89565b5b6000611b0f84828501611ad6565b91505092915050565b60008115159050919050565b611b2d81611b18565b82525050565b6000602082019050611b486000830184611b24565b92915050565b600081519050919050565b600082825260208201905092915050565b60005b83811015611b88578082015181840152602081019050611b6d565b60008484015250505050565b6000601f19601f8301169050919050565b6000611bb082611b4e565b611bba8185611b59565b9350611bca818560208601611b6a565b611bd381611b94565b840191505092915050565b60006020820190508181036000830152611bf88184611ba5565b905092915050565b6000819050919050565b611c1381611c00565b8114611c1e57600080fd5b50565b600081359050611c3081611c0a565b92915050565b600060208284031215611c4c57611c4b611a89565b5b6000611c5a84828501611c21565b91505092915050565b600073ffffffffffffffffffffffffffffffffffffffff82169050919050565b6000611c8e82611c63565b9050919050565b611c9e81611c83565b82525050565b6000602082019050611cb96000830184611c95565b92915050565b611cc881611c83565b8114611cd357600080fd5b50565b600081359050611ce581611cbf565b92915050565b60008060408385031215611d0257611d01611a89565b5b6000611d1085828601611cd6565b9250506020611d2185828601611c21565b9150509250929050565b600080fd5b600080fd5b7f4e487b7100000000000000000000000000000000000000000000000000000000600052604160045260246000fd5b611d6d82611b94565b810181811067ffffffffffffffff82111715611d8c57611d8b611d35565b5b80604052505050565b6000611d9f611a7f565b9050611dab8282611d64565b919050565b600067ffffffffffffffff821115611dcb57611dca611d35565b5b611dd482611b94565b9050602081019050919050565b82818337600083830152505050565b6000611e03611dfe84611db0565b611d95565b905082815260208101848484011115611e1f57611e1e611d30565b5b611e2a848285611de1565b509392505050565b600082601f830112611e4757611e46611d2b565b5b8135611e57848260208601611df0565b91505092915050565b60008060408385031215611e7757611e76611a89565b5b6000611e8585828601611cd6565b925050602083013567ffffffffffffffff811115611ea657611ea5611a8e565b5b611eb285828601611e32565b9150509250929050565b600080600060608486031215611ed557611ed4611a89565b5b6000611ee386828701611cd6565b9350506020611ef486828701611cd6565b9250506040611f0586828701611c21565b9150509250925092565b600060208284031215611f2557611f24611a89565b5b6000611f3384828501611cd6565b91505092915050565b611f4581611c00565b82525050565b6000602082019050611f606000830184611f3c565b92915050565b611f6f81611b18565b8114611f7a57600080fd5b50565b600081359050611f8c81611f66565b92915050565b60008060408385031215611fa957611fa8611a89565b5b6000611fb785828601611cd6565b9250506020611fc885828601611f7d565b9150509250929050565b600067ffffffffffffffff821115611fed57611fec611d35565b5b611ff682611b94565b9050602081019050919050565b600061201661201184611fd2565b611d95565b90508281526020810184848401111561203257612031611d30565b5b61203d848285611de1565b509392505050565b600082601f83011261205a57612059611d2b565b5b813561206a848260208601612003565b91505092915050565b6000806000806080858703121561208d5761208c611a89565b5b600061209b87828801611cd6565b94505060206120ac87828801611cd6565b93505060406120bd87828801611c21565b925050606085013567ffffffffffffffff8111156120de576120dd611a8e565b5b6120ea87828801612045565b91505092959194509250565b6000806040838503121561210d5761210c611a89565b5b600061211b85828601611cd6565b925050602061212c85828601611cd6565b9150509250929050565b7f4e487b7100000000000000000000000000000000000000000000000000000000600052602260045260246000fd5b6000600282049050600182168061217d57607f821691505b6020821081036121905761218f612136565b5b50919050565b7f4e487b7100000000000000000000000000000000000000000000000000000000600052601160045260246000fd5b60006121d082611c00565b91507fffffffffffffffffffffffffffffffffffffffffffffffffffffffffffffffff820361220257612201612196565b5b600182019050919050565b60006060820190506122226000830186611c95565b61222f6020830185611f3c565b61223c6040830184611c95565b949350505050565b600081905092915050565b600061225a82611b4e565b6122648185612244565b9350612274818560208601611b6a565b80840191505092915050565b600061228c828561224f565b9150612298828461224f565b91508190509392505050565b60008190508160005260206000209050919050565b60006020601f8301049050919050565b600082821b905092915050565b6000600883026123067fffffffffffffffffffffffffffffffffffffffffffffffffffffffffffffffff826122c9565b61231086836122c9565b95508019841693508086168417925050509392505050565b6000819050919050565b600061234d61234861234384611c00565b612328565b611c00565b9050919050565b6000819050919050565b61236783612332565b61237b61237382612354565b8484546122d6565b825550505050565b600090565b612390612383565b61239b81848461235e565b505050565b5b818110156123bf576123b4600082612388565b6001810190506123a1565b5050565b601f821115612404576123d5816122a4565b6123de846122b9565b810160208510156123ed578190505b6124016123f9856122b9565b8301826123a0565b50505b505050565b600082821c905092915050565b600061242760001984600802612409565b1980831691505092915050565b60006124408383612416565b9150826002028217905092915050565b61245982611b4e565b67ffffffffffffffff81111561247257612471611d35565b5b61247c8254612165565b6124878282856123c3565b600060209050601f8311600181146124ba57600084156124a8578287015190505b6124b28582612434565b86555061251a565b601f1984166124c8866122a4565b60005b828110156124f0578489015182556001820191506020850194506020810190506124cb565b8683101561250d5784890151612509601f891682612416565b8355505b6001600288020188555050505b505050505050565b600081519050919050565b600082825260208201905092915050565b600061254982612522565b612553818561252d565b9350612563818560208601611b6a565b61256c81611b94565b840191505092915050565b600060808201905061258c6000830187611c95565b6125996020830186611c95565b6125a66040830185611f3c565b81810360608301526125b8818461253e565b905095945050505050565b6000815190506125d281611abf565b92915050565b6000602082840312156125ee576125ed611a89565b5b60006125fc848285016125c3565b91505092915050565b600060408201905061261a6000830185611c95565b6126276020830184611f3c565b9392505050565b7f4e487b7100000000000000000000000000000000000000000000000000000000600052601260045260246000fdfea2646970667358221220ae0c36b3350795d848641058c318bd00c8887b10230567c4f12c7e4cecc7fa6f64736f6c63430008140033",
  "linkReferences": {},
  "deployedLinkReferences": {}
}